S01800004763634170706C69636174696F6E34362E7372656321
S113000009C021C020C01FC01EC01DC01CC01BC011
S11300101AC019C011241FBECFE9CDBF10E0A0E65D
S1130020B0E0E6EDF0E002C005900D92AA36B1070B
S1130030D9F720E0AAE6B0E001C01D92A637B207C6
S1130040E1F731D046C0DCCFFA016115710571F0DA
S1130050680F791FE199FECF8EBB019620812DBBDD
S11300603296E29AE19A86179707A1F70895FA0162
S1130070E199FECF6115710561F0680F791F8EBBA0
S11300800196E09A2DB32083118232968617970742
S1130090B1F70895E199FECF8EBBE09A8DB3FB01D1
S11300A080831182089540E650E065E070E080E0CE
S11300B090E0CADF4AE650E065E070E080E090E05E
S11300C0D6DF64E770E081E090E0E4DF80E090E078
S10900D00895F894FFCF2F
S10D00D601000200030004000A0008
S9030000FC
